:020000040000FA
:0600000089EF14F012006C
:020006001200E6
:08000800F2A402D063EF11F035
:100010009EA002D0C7EF11F01200D08EF28E120017
:100020000900172A000030010000070000000C2A18
:1000300000001B0100000B0000000B2A000038012B
:10004000000001000000FE2900000E0100000D006C
:100050000000D62900008000000028000000C82908
:100060000000000100000E000000AD290000A80003
:1000700000001B00000095290000C30000001800CC
:0E008000000080290000DB00000015000000D9
:02008E00D9CFC8
:10009000E6FFE1CFD9FFE652FD0EDBCF16F0FE0EF4
:1000A000DBCF17F017C016F0176A640E1702F3CFF4
:1000B00017F01602F3CF16F0F4501726FD0EDBCF23
:1000C00018F0FE0EDBCF19F0040ED890193218325A
:1000D000E804FBE10A0E1902F3CF19F01802F3CF7E
:1000E00018F0F450192616501810146E17501910E5
:1000F000156E0F0EE76EFD0EDBCF1AF0FE0EDBCF96
:100100001BF0E7501A161B6A14501A10DF6EDF50EE
:1001100000D0E552E552E7CFD9FF1200D9CFE6FF74
:10012000E1CFD9FFFE0EDB50F00BE83A060DFE0ED4
:10013000DBCFE7FFF350E75EFE0EE7CFDBFFDB50E0
:10014000146E156A14C0F3FF15C0F4FF00D0E55219
:10015000E7CFD9FF1200D9CFE6FFE1CFD9FF020EDA
:10016000E1260A0E146E14C00EF0FE0EDBCF09F06D
:1001700097EC14F00950DF6E0A0E146E14C00EF0E6
:10018000FE0EDBCF09F097EC14F0010E05C0DBFF8B
:10019000DB500F0B146E0F0EDF14100DF350141004
:1001A000146E020EE15C03E200D0E16AE552E16EFA
:1001B0001450E552E7CFD9FF1200D9CFE6FFE1CFC7
:1001C000D9FF0E0EE126FD0EDBCF14F0FE0EDBCFC5
:1001D00015F00A0E0D6E0E6A14C008F015C009F075
:1001E00063EC14F004C014F005C015F00A0E14C03E
:1001F000DBFF0B0E15C0DBFF0C0EDB6A0D0EDB6A9E
:100200000A0EDB50E76E040EE7CFDBFFFD0EDBCFFF
:1002100014F0FE0EDBCF15F00A0E0D6E0E6A14C040
:1002200008F015C009F063EC14F008C014F009C020
:1002300015F0060E14C0DBFF070E15C0DBFF080E1D
:10024000DB6A090EDB6A060EDBCF06F0070EDBCF9A
:1002500007F0080EDBCF08F0090EDBCF09F00A0E1D
:100260000B6E0C6A0D6A0E6A6CEC13F00A0E02C07B
:10027000DBFF0B0E03C0DBFF0C0E04C0DBFF0D0E1B
:1002800005C0DBFF0A0EDB50E76E030EE7CFDBFF96
:10029000060EDBCF06F0070EDBCF07F0080EDBCF34
:1002A00008F0090EDBCF09F00A0E0B6E0C6A0D6A1E
:1002B0000E6A6CEC13F0060E06C0DBFF070E07C0DB
:1002C000DBFF080E08C0DBFF090E09C0DBFF060ECE
:1002D000DBCF06F0070EDBCF07F0080EDBCF08F010
:1002E000090EDBCF09F00A0E0B6E0C6A0D6A0E6A5E
:1002F0006CEC13F00A0E02C0DBFF0B0E03C0DBFF39
:100300000C0E04C0DBFF0D0E05C0DBFF0A0EDB5038
:10031000E76E020EE7CFDBFF060EDBCF06F0070E1F
:10032000DBCF07F0080EDBCF08F0090EDBCF09F0BA
:100330000A0E0B6E0C6A0D6A0E6A6CEC13F0060E58
:1003400006C0DBFF070E07C0DBFF080E08C0DBFF9F
:10035000090E09C0DBFF060EDBCF06F0070EDBCF70
:1003600007F0080EDBCF08F0090EDBCF09F00A0E0C
:100370000B6E0C6A0D6A0E6A6CEC13F00A0E02C06A
:10038000DBFF0B0E03C0DBFF0C0E04C0DBFF0D0E0A
:1003900005C0DBFF0A0EDB50E76E010EE7CFDBFF87
:1003A000060EDBCF06F0070EDBCF07F0080EDBCF23
:1003B00008F0090EDBCF09F00A0E0B6E0C6A0D6A0D
:1003C0000E6A6CEC13F0060E06C0DBFF070E07C0CA
:1003D000DBFF080E08C0DBFF090E09C0DBFF060EBD
:1003E000DB50DF6E050EDB6AF36EDBCFF4FFF350FC
:1003F000F45C21E2D9CF14F0DACF15F0050EDB5012
:100400000F011424E96E000E1520EA6EEF50E66E1F
:10041000050EDB50E76EFB0EDBCFE9FFFC0EDBCFFA
:10042000EAFFE750E926000EEA22E552E750EF6EB8
:10043000050EDB2AD9D70E0EE15C02E2E16AE55235
:10044000E16EE552E7CFD9FF1200D9CFE6FFE1CF49
:10045000D9FF080EE1260A0E146E14C00EF0FE0E2F
:10046000DBCF09F097EC14F00550E66ED950060F7B
:10047000E96EDACFEAFFE552E750EE6EED6A060E5E
:10048000DB50E76E020EE7CFDBFF0A0E146E14C0DE
:100490000EF0FE0EDBCF09F097EC14F00950E66E7B
:1004A000D950040FE96EDACFEAFFE552E750EE6E5D
:1004B000ED6A040EDBCF14F0050EDBCF15F00A0E4B
:1004C0000D6E0E6A14C008F015C009F063EC14F04C
:1004D00004C014F005C015F0060E14C0DBFF070EB3
:1004E00015C0DBFF060EDB50E76E010EE7CFDBFF2A
:1004F0000A0E146E156A040EDBCF08F0050EDBCF72
:1005000009F014C00DF015C00EF063EC14F0040EE9
:1005100008C0DBFF050E09C0DBFF040EDB50DF6EF9
:10052000030EDB6AF36EDBCFF4FFF350F45C21E2E1
:10053000D9CF14F0DACF15F0030EDB500F011424DD
:10054000E96E000E1520EA6EEF50E66E030EDB50EA
:10055000E76EFC0EDBCFE9FFFD0EDBCFEAFFE750D5
:10056000E926000EEA22E552E750EF6E030EDB2A81
:10057000D9D7080EE15C02E2E16AE552E16EE5528C
:10058000E7CFD9FF1200D9CFE6FFE1CFD9FF130E95
:10059000E126FB0EDBCF06F0FC0EDBCF07F0FD0EF5
:1005A000DBCF08F0FE0EDBCF09F00A0E0B6E0C6AF3
:1005B0000D6A0E6A6CEC13F00F0E02C0DBFF100E1A
:1005C00003C0DBFF110E04C0DBFF120E05C0DBFF12
:1005D0000F0EDB50E76E090EE7CFDBFFFB0EDBCF24
:1005E00006F0FC0EDBCF07F0FD0EDBCF08F0FE0EB1
:1005F000DBCF09F00A0E0B6E0C6A0D6A0E6A6CEC0A
:1006000013F00B0E06C0DBFF0C0E07C0DBFF0D0E58
:1006100008C0DBFF0E0E09C0DBFF0B0EDBCF06F0C0
:100620000C0EDBCF07F00D0EDBCF08F00E0EDBCF8C
:1006300009F00A0E0B6E0C6A0D6A0E6A6CEC13F070
:100640000F0E02C0DBFF100E03C0DBFF110E04C053
:10065000DBFF120E05C0DBFF0F0EDB50E76E080E4E
:10066000E7CFDBFF0B0EDBCF06F00C0EDBCF07F086
:100670000D0EDBCF08F00E0EDBCF09F00A0E0B6E6D
:100680000C6A0D6A0E6A6CEC13F00B0E06C0DBFFF1
:100690000C0E07C0DBFF0D0E08C0DBFF0E0E09C0FD
:1006A000DBFF0B0EDBCF06F00C0EDBCF07F00D0EE1
:1006B000DBCF08F00E0EDBCF09F00A0E0B6E0C6AD2
:1006C0000D6A0E6A6CEC13F00F0E02C0DBFF100E09
:1006D00003C0DBFF110E04C0DBFF120E05C0DBFF01
:1006E0000F0EDB50E76E070EE7CFDBFF0B0EDBCF05
:1006F00006F00C0EDBCF07F00D0EDBCF08F00E0E70
:10070000DBCF09F00A0E0B6E0C6A0D6A0E6A6CECF8
:1007100013F00B0E06C0DBFF0C0E07C0DBFF0D0E47
:1007200008C0DBFF0E0E09C0DBFF0B0EDBCF06F0AF
:100730000C0EDBCF07F00D0EDBCF08F00E0EDBCF7B
:1007400009F00A0E0B6E0C6A0D6A0E6A6CEC13F05F
:100750000F0E02C0DBFF100E03C0DBFF110E04C042
:10076000DBFF120E05C0DBFF0F0EDB50E76E060E3F
:10077000E7CFDBFF0B0EDBCF06F00C0EDBCF07F075
:100780000D0EDBCF08F00E0EDBCF09F00A0E0B6E5C
:100790000C6A0D6A0E6A6CEC13F00B0E06C0DBFFE0
:1007A0000C0E07C0DBFF0D0E08C0DBFF0E0E09C0EC
:1007B000DBFF0B0EDBCF06F00C0EDBCF07F00D0ED0
:1007C000DBCF08F00E0EDBCF09F00A0E0B6E0C6AC1
:1007D0000D6A0E6A6CEC13F00F0E02C0DBFF100EF8
:1007E00003C0DBFF110E04C0DBFF120E05C0DBFFF0
:1007F0000F0EDB50E76E050EE7CFDBFF0B0EDBCFF6
:1008000006F00C0EDBCF07F00D0EDBCF08F00E0E5E
:10081000DBCF09F00A0E0B6E0C6A0D6A0E6A6CECE7
:1008200013F00B0E06C0DBFF0C0E07C0DBFF0D0E36
:1008300008C0DBFF0E0E09C0DBFF0B0EDBCF06F09E
:100840000C0EDBCF07F00D0EDBCF08F00E0EDBCF6A
:1008500009F00A0E0B6E0C6A0D6A0E6A6CEC13F04E
:100860000F0E02C0DBFF100E03C0DBFF110E04C031
:10087000DBFF120E05C0DBFF0F0EDB50E76E040E30
:10088000E7CFDBFF0B0EDBCF06F00C0EDBCF07F064
:100890000D0EDBCF08F00E0EDBCF09F00A0E0B6E4B
:1008A0000C6A0D6A0E6A6CEC13F00B0E06C0DBFFCF
:1008B0000C0E07C0DBFF0D0E08C0DBFF0E0E09C0DB
:1008C000DBFF0B0EDBCF06F00C0EDBCF07F00D0EBF
:1008D000DBCF08F00E0EDBCF09F00A0E0B6E0C6AB0
:1008E0000D6A0E6A6CEC13F00F0E02C0DBFF100EE7
:1008F00003C0DBFF110E04C0DBFF120E05C0DBFFDF
:100900000F0EDB50E76E030EE7CFDBFF0B0EDBCFE6
:1009100006F00C0EDBCF07F00D0EDBCF08F00E0E4D
:10092000DBCF09F00A0E0B6E0C6A0D6A0E6A6CECD6
:1009300013F00B0E06C0DBFF0C0E07C0DBFF0D0E25
:1009400008C0DBFF0E0E09C0DBFF0B0EDBCF06F08D
:100950000C0EDBCF07F00D0EDBCF08F00E0EDBCF59
:1009600009F00A0E0B6E0C6A0D6A0E6A6CEC13F03D
:100970000F0E02C0DBFF100E03C0DBFF110E04C020
:10098000DBFF120E05C0DBFF0F0EDB50E76E020E21
:10099000E7CFDBFF0B0EDBCF06F00C0EDBCF07F053
:1009A0000D0EDBCF08F00E0EDBCF09F00A0E0B6E3A
:1009B0000C6A0D6A0E6A6CEC13F00B0E06C0DBFFBE
:1009C0000C0E07C0DBFF0D0E08C0DBFF0E0E09C0CA
:1009D000DBFF0B0EDBCF06F00C0EDBCF07F00D0EAE
:1009E000DBCF08F00E0EDBCF09F00A0E0B6E0C6A9F
:1009F0000D6A0E6A6CEC13F00F0E02C0DBFF100ED6
:100A000003C0DBFF110E04C0DBFF120E05C0DBFFCD
:100A10000F0EDB50E76E010EE7CFDBFF0B0EDBCFD7
:100A200006F00C0EDBCF07F00D0EDBCF08F00E0E3C
:100A3000DBCF09F00A0E0B6E0C6A0D6A0E6A6CECC5
:100A400013F00B0E06C0DBFF0C0E07C0DBFF0D0E14
:100A500008C0DBFF0E0E09C0DBFF0B0EDB50DF6EA4
:100A60000A0EDB6AF36EDBCFF4FFF350F45C22E294
:100A7000D9CF14F0DACF15F00A0EDB500F01142491
:100A8000E96E000E1520EA6EEF503009E66E0A0E90
:100A9000DB50E76EF90EDBCFE9FFFA0EDBCFEAFFA2
:100AA000E750E926000EEA22E552E750EF6E0A0E03
:100AB000DB2AD8D7130EE15C02E2E16AE552E16E6F
:100AC000E552E7CFD9FF1200D9CFE6FFE1CFD9FF3A
:100AD000FE0EDB50F00BE83A060DFE0EDBCFE7FF13
:100AE000F350E75EFE0EE7CFDBFFDB5000D0E552B0
:100AF000E7CFD9FF1200D9CFE6FFE1CFD9FF0A0E29
:100B0000146E14C00EF0FE0EDBCF09F097EC14F05B
:100B10000950060DFE0EDBCFE7FFF350E726FE0E71
:100B2000E7CFDBFFDB50146E156A14C0F3FF15C06E
:100B3000F4FF00D0E552E7CFD9FF1200D9CFE6FF8E
:100B4000E1CFD9FF060EE126F36EFC0EDBCFF4FFFA
:100B5000F350F45C71E2020EDB6A030EDB6A040EF2
:100B6000DB6A050EDB6ADF6AFC0EDB50DF5C58E2F5
:100B7000FC0EDBCFE6FFDF28E552E75CE76E010EF7
:100B8000E7CFDBFFF36E040EF3CFDBFF050EDB6A6E
:100B9000010EDB50000814E20A0E086E096A040E0A
:100BA000DBCF0DF0050EDBCF0EF0D3EC13F0040E0F
:100BB00006C0DBFF050E07C0DBFF010EDB06E8D732
:100BC000020EDBCF16F0030EDBCF17F0DF50E76E1F
:100BD000FD0EDBCFE9FFFE0EDBCFEAFFE750E92693
:100BE000000EEA22EF500F0B186E196A040EDBCFCD
:100BF00008F0050EDBCF09F018C00DF019C00EF09B
:100C0000D3EC13F016500624146E17500720156EFF
:100C1000020E14C0DBFF030E15C0DBFFDF2AA4D7D2
:100C2000020EDBCF14F0030EDBCF15F014C0F3FF80
:100C300015C0F4FF04D003D0F36AF46A00D0060EA6
:100C4000E15C02E2E16AE552E16EE552E7CFD9FFED
:020C5000120090
:0E0C5200D9CFE6FFE1CFD9FFFE0EDB04E96E3D
:100C6000EA6AD890E936EA36810EE926000EEA22D1
:100C7000EECF14F0EFCF15F014C0F3FF15C0F4FF62
:100C800000D0E552E7CFD9FF1200D9CFE6FFE1CF80
:100C9000D9FFFE0EDBCFE6FFE66A47EC00F0E55237
:100CA000E552FF0FE96EEA6AD890E936EA368F0E10
:100CB000E926000EEA22EECF14F0EFCF15F014C0B3
:100CC000F3FF15C0F4FF00D0E552E7CFD9FF1200C3
:100CD000D9CFE6FFE1CFD9FF4CEC10F0D00EE66E95
:100CE00090EC10F0E552E66A90EC10F0E5524CEC16
:100CF00010F0D10EE66E90EC10F0E552010EE66EAB
:100D0000D7EC10F0E552E66EFD0EDBCFE9FFFE0EEC
:100D1000DBCFEAFFE552E750EF6E010EE66ED7EC4F
:100D200010F0E552E66E010EE76EFD0EDBCFE9FF37
:100D3000FE0EDBCFEAFFE750E926000EEA22E5527D
:100D4000E750EF6E010EE66ED7EC10F0E552E66E5E
:100D5000020EE76EFD0EDBCFE9FFFE0EDBCFEAFFF2
:100D6000E750E926000EEA22E552E750EF6E010E49
:100D7000E66ED7EC10F0E552E66E030EE76EFD0E60
:100D8000DBCFE9FFFE0EDBCFEAFFE750E926000EDE
:100D9000EA22E552E750EF6E010EE66ED7EC10F056
:100DA000E552E66E040EE76EFD0EDBCFE9FFFE0EA8
:100DB000DBCFEAFFE750E926000EEA22E552E750D2
:100DC000EF6E010EE66ED7EC10F0E552E66E050E02
:100DD000E76EFD0EDBCFE9FFFE0EDBCFEAFFE7504B
:100DE000E926000EEA22E552E750EF6EE66AD7ECFC
:100DF00010F0E552E66E060EE76EFD0EDBCFE9FF62
:100E0000FE0EDBCFEAFFE750E926000EEA22E552AC
:100E1000E750EF6E62EC10F0E552E7CFD9FF120019
:100E2000D9CFE6FFE1CFD9FF4CEC10F0D00EE66E43
:100E300090EC10F0E552E66A90EC10F0E552FD0EF1
:100E4000DBCFE9FFFE0EDBCFEAFFEF50E66E90EC62
:100E500010F0E552010EE76EFD0EDBCFE9FFFE0E4E
:100E6000DBCFEAFFE750E926000EEA22EF50E66EFC
:100E700090EC10F0E552020EE76EFD0EDBCFE9FFBD
:100E8000FE0EDBCFEAFFE750E926000EEA22EF5024
:100E9000E66E90EC10F0E552030EE76EFD0EDBCF30
:100EA000E9FFFE0EDBCFEAFFE750E926000EEA225B
:100EB000EF50E66E90EC10F0E552040EE76EFD0E7A
:100EC000DBCFE9FFFE0EDBCFEAFFE750E926000E9D
:100ED000EA22EF50E66E90EC10F0E552050EE76E58
:100EE000FD0EDBCFE9FFFE0EDBCFEAFFE750E92680
:100EF000000EEA22EF50E66E90EC10F0E552060E7E
:100F0000E76EFD0EDBCFE9FFFE0EDBCFEAFFE75019
:100F1000E926000EEA22EF50E66E90EC10F0E55262
:100F200062EC10F0E552E7CFD9FF1200D9CFE6FF0F
:100F3000E1CFD9FFFD0EDB041DE1FE0EDB504009C1
:100F4000E76EFE0EE7CFDBFFFC0EDB0408E1FE0ED2
:100F5000DB502009E76EFE0EE7CFDBFF0AD0FC0E68
:100F6000DB5007E1FE0EDB50DF0BE76EFE0EE7CF36
:100F7000DBFF0AD0FD0EDB5007E1FE0EDB50BF0B9E
:100F8000E76EFE0EE7CFDBFFFE0EDB5000D0E55232
:100F9000E7CFD9FF1200D9CFE6FFE1CFD9FFFD0E91
:100FA000DBCFE9FFFE0EDBCFEAFFEE52EF50E66E3D
:100FB000FB0EDBCFE9FFFC0EDBCFEAFFEE52E55282
:100FC000E750EF6EFD0EDBCFE9FFFE0EDBCFEAFF51
:100FD000EF50E66EFB0EDBCFE9FFFC0EDBCFEAFF46
:100FE000E552E750EF6EFD0EDBCFE9FFFE0EDBCFE3
:100FF000EAFF020EE926000EEA22EFCF14F00C0EF3
:10100000145C42E3FD0EDBCFE9FFFE0EDBCFEAFF0F
:10101000020EE926000EEA22EF50F40FE66EFB0EF8
:10102000DBCFE9FFFC0EDBCFEAFF020EE926000E64
:10103000EA22E552E750EF6EFB0EDBCFE9FFFC0E34
:10104000DBCFEAFF070EE926000EEA22010EEF6E63
:101050000C0E146EFD0EDBCFE9FFFE0EDBCFEAFFB8
:10106000020EE926000EEA22EF50145C0CE1FB0EA2
:10107000DBCFE9FFFC0EDBCFEAFF020EE926000E14
:10108000EA220C0EEF6E4BD0FD0EDBCFE9FFFE0E19
:10109000DBCFEAFF020EE926000EEA22EFCF14F0C2
:1010A0000C0E145C3CE2FD0EDBCFE9FFFE0EDBCF45
:1010B000EAFF020EE926000EEA22EF50E66EFB0E72
:1010C000DBCFE9FFFC0EDBCFEAFF020EE926000EC4
:1010D000EA22E552E750EF6EFB0EDBCFE9FFFC0E94
:1010E000DBCFEAFF070EE926000EEA22EF6AFD0ECB
:1010F000DBCFE9FFFE0EDBCFEAFF020EE926000E92
:10110000EA22EF500CE1FB0EDBCFE9FFFC0EDBCF58
:10111000EAFF020EE926000EEA220C0EEF6EE552FF
:10112000E7CFD9FF1200D9CFE6FFE1CFD9FFFD0EFF
:10113000DBCFE9FFFE0EDBCFEAFFEE52EF50E66EAB
:10114000FB0EDBCFE9FFFC0EDBCFEAFFEE52E552F0
:10115000E750EF6EFD0EDBCFE9FFFE0EDBCFEAFFBF
:10116000EF50E66EFB0EDBCFE9FFFC0EDBCFEAFFB4
:10117000E552E750EF6EFD0EDBCFE9FFFE0EDBCF51
:10118000EAFF070EE926000EEA22EF0436E1FD0E23
:10119000DBCFE9FFFE0EDBCFEAFF020EE926000EF1
:1011A000EA22EF500C0FE66EFB0EDBCFE9FFFC0EE0
:1011B000DBCFEAFF020EE926000EEA22E552E750F5
:1011C000EF6E0C0E146EFD0EDBCFE9FFFE0EDBCFD3
:1011D000EAFF020EE926000EEA22EF50145C0CE151
:1011E000FB0EDBCFE9FFFC0EDBCFEAFF020EE926A8
:1011F000000EEA220C0EEF6E3FD0FD0EDBCFE9FFB2
:10120000FE0EDBCFEAFF070EE926000EEA22EF50C2
:1012100033E1FD0EDBCFE9FFFE0EDBCFEAFF020E6E
:10122000E926000EEA22EF50E66EFB0EDBCFE9FF67
:10123000FC0EDBCFEAFF020EE926000EEA22E552A1
:10124000E750EF6E0C0E146EFD0EDBCFE9FFFE0EC5
:10125000DBCFEAFF020EE926000EEA22EF50145C13
:101260000BE1FB0EDBCFE9FFFC0EDBCFEAFF020E4A
:10127000E926000EEA22EF6AE552E7CFD9FF120015
:10128000D9CFE6FFE1CFD9FFE652DF6AFD0EDB04DE
:101290000DE1FE0EDB500C0FDF6E0C0E146EFE0E19
:1012A000DB50145C02E10C0EDF6E16D0FD0EDB503D
:1012B0000BE1FE0EDB50DF6E0C0E146EFE0EDB50EB
:1012C000145C01E1DF6A08D0AA0E146EFD0EDB503B
:1012D000145C02E1AA0EDF6EDF5000D0E552E55249
:1012E000E7CFD9FF1200D9CFE6FFE1CFD9FF4CEC11
:1012F00010F0D00EE66E90EC10F0E552E66A90EC3D
:1013000010F0E552050EE76EFD0EDBCFE9FFFE0E95
:10131000DBCFEAFFE750E926000EEA22EF500F0B81
:10132000146E040EE76EFD0EDBCFE9FFFE0EDBCF81
:10133000EAFFE750E926000EEA22EF500F0B100DEE
:10134000F3501410E66E90EC10F0E552030EE76EC9
:10135000FD0EDBCFE9FFFE0EDBCFEAFFE750E9260B
:10136000000EEA22EF500F0B146E020EE76EFD0E18
:10137000DBCFE9FFFE0EDBCFEAFFE750E926000EE8
:10138000EA22EF500F0B100DF3501410E66E90ECA4
:1013900010F0E552010EE76EFD0EDBCFE9FFFE0E09
:1013A000DBCFEAFFE750E926000EEA22EF500F0BF1
:1013B000146EFD0EDBCFE9FFFE0EDBCFEAFFEF5030
:1013C0000F0B100DF3501410E66E90EC10F0E55278
:1013D00062EC10F0E552E7CFD9FF1200D9CFE6FF5B
:1013E000E1CFD9FF4CEC10F0D00EE66E90EC10F08F
:1013F000E552040EE66E90EC10F0E552010EE76E39
:10140000FD0EDBCFE9FFFE0EDBCFEAFFE750E9265A
:10141000000EEA22EF500F0B146EFD0EDBCFE9FF3A
:10142000FE0EDBCFEAFFEF500F0B100DF350141040
:10143000E66E90EC10F0E552030EE76EFD0EDBCF8A
:10144000E9FFFE0EDBCFEAFFE750E926000EEA22B5
:10145000EF500F0B146E020EE76EFD0EDBCFE9FFAF
:10146000FE0EDBCFEAFFE750E926000EEA22EF503E
:101470000F0B100DF3501410E66E90EC10F0E552C7
:10148000050EE76EFD0EDBCFE9FFFE0EDBCFEAFFB8
:10149000E750E926000EEA22EF500F0B146E040EFF
:1014A000E76EFD0EDBCFE9FFFE0EDBCFEAFFE75074
:1014B000E926000EEA22EF500F0B100DF350141026
:1014C000E66E90EC10F0E55262EC10F0E552E7CFDA
:1014D000D9FF1200D9CFE6FFE1CFD9FF4CEC10F0D5
:1014E000D00EE66E90EC10F0E552030EE66E90EC36
:1014F00010F0E552FE0EDBCFE6FF90EC10F0E55267
:1015000062EC10F0E552E7CFD9FF1200D9CFE6FF29
:10151000E1CFD9FFE652E66AD00EE66E28EC11F074
:10152000E552E552DF6E7F0EDF14DF6EDFCFE6FFA0
:10153000E66AD00EE66E4AEC11F0E552E552E5524D
:10154000900EE66E070EE66ED00EE66E4AEC11F0D7
:10155000E552E552E552E552E552E7CFD9FF1200D8
:10156000F70EE66E000EE66E68EC06F0E552E55208
:101570000001A7510001F75D05E0F7C0A7F00001E9
:06158000010E806F120055
:0A158600D9CFE6FFE1CFD9FF030E35
:10159000E126FE0EDB50080802E2000E19D0FE0E16
:1015A000DBCFB9F0DF6A0001B951DF5C0AE2DF503E
:1015B000EA6AB10FE96E000EEA2225C1EFFFDF2AC9
:1015C000F2D7A90EBF6F000EC06FBA6B010E00D02C
:1015D000146E030EE15C02E2E16AE552E16E145022
:1015E000E552E7CFD9FF12000001A851010A14E02B
:1015F000010A01E03BD0BA51EA6ABF25E96EC05149
:10160000EA22EF50E66E41D9E5520001BA2BB951FA
:10161000BA5D01E3BA6B2AD0BA51EA6ABF25E96E16
:10162000C051EA22EF50E66E30D9E5520001BA2BE4
:10163000B951BA5D01E3BA6BBB2B000EBC23BD519F
:10164000BB5DBE51BC5911E3BB6BBC6BA90EBF198E
:1016500002E1000EC01905E1B10EBF6F000EC06FB0
:1016600004D0A90EBF6F000EC06F00D01200D9CFFA
:10167000E6FFE1CFD9FFE652DF6ADF6A0001B95128
:10168000DF5C16E2DF50E76EFD0EDBCFE9FFFE0EFA
:10169000DBCFEAFFE750E926000EEA22EF50E66EC4
:1016A00053D9E552000902E1000E41D0DF2AE6D706
:1016B000DF6AB951DF5C38E2DF50E76EFD0EDBCF49
:1016C000E9FFFE0EDBCFEAFFE750E926000EEA2233
:1016D000EF50200809E1DF50EA6AA90FE96E000E19
:1016E000EA2225C1EFFF1ED0DF50E76EFD0EDBCFF3
:1016F000E9FFFE0EDBCFEAFFE750E926000EEA2203
:10170000EF50D00FEA6A1B0FE96E010EEA22EF508C
:10171000E66EDF50EA6AA90FE96E000EEA22E55292
:10172000E750EF6EDF2AC5D7BA6B010E00D0E55245
:10173000E552E7CFD9FF1200D9CFE6FFE1CFD9FFBD
:10174000E652DF6ADF6A0001B951DF5C19E2DF505F
:10175000E76EFD0EDBCFE9FFFE0EDBCFEAFFE750C1
:10176000E926000EEA22EF50E66EDF50EA6AA90F82
:10177000E96E000EEA22E552E750EF6EDF2AE3D76A
:10178000BA6BE552E552E7CFD9FF1200D9CFE6FF99
:10179000E1CFD9FFE652DF6AFE0EDBCF14F0000185
:1017A000B951D880145402E2000E2DD0FD0EDBCFCB
:1017B000E6FFCAD8E552000902E1000E24D0FD0E72
:1017C000DB5020080AE1FE0EDB50EA6AA90FE96E41
:1017D000000EEA2225C1EFFF14D0FD0EDB50D00F22
:1017E000EA6A1B0FE96E010EEA22EF50E66EFE0E6A
:1017F000DB50EA6AA90FE96E000EEA22E552E750D3
:10180000EF6E010E00D0E552E552E7CFD9FF12008E
:10181000D9CFE6FFE1CFD9FFFD0EDBCFBDF0FE0E45
:10182000DBCFBEF0010E0F0B000105E0D890BE33F8
:10183000BD33E806FBE10001BB6BBC6B010EA86F7A
:10184000E552E7CFD9FF12000001A90EBF6F000ECD
:10185000C06FA86B1200D9CFE6FFE1CFD9FFE652E7
:10186000DF6A0001B951DF5C0AE2DF50EA6AA90FC2
:10187000E96E000EEA2225C1EFFFDF2AF2D7BA6B2C
:10188000E552E552E7CFD9FF1200D9CFE6FFE1CF0D
:10189000D9FF80808082808480868088808AFE0E46
:1018A000DB1C836E0001BA51050A15E0010A11E044
:1018B000070A0DE0010A09E0030A05E0010A01E058
:1018C0000CD080900AD0809208D0809406D0809668
:1018D00004D0809802D0809A00D0E552E7CFD9FF9B
:1018E0001200D9CFE6FFE1CFD9FF020EE126FE0EAE
:1018F000DB50DF6EFE0EDBCFE6FFFD0EDB50E55268
:10190000E724DF5C17E2DF50EA6AA90FE96E000EF8
:10191000EA22010EEFCFDBFFDB508009E66EDF50DD
:10192000EA6AA90FE96E000EEA22E552E750EF6E6F
:10193000DF2AE0D7020EE15C02E2E16AE552E16EE5
:10194000E552E7CFD9FF1200D9CFE6FFE1CFD9FFAB
:10195000E652DF6AFE0EDB50200803E1010EDF6E67
:101960000ED0300EF36EFE0EDBCFF4FFF350F45CBE
:1019700006E3FE0EDB50390802E3010EDF6EDF5096
:1019800000D0E552E552E7CFD9FF1200D9CFE6FFEC
:10199000E1CFD9FFE652DF6ADF6A0001B951DF5CAF
:1019A00016E2DF50E76EFD0EDBCFE9FFFE0EDBCF68
:1019B000EAFFE750E926000EEA22EF50E66EC4DFA8
:1019C000E552000902E1000E4AD0DF2AE6D7FC0EFC
:1019D000DB50DF6EFB0EDBCFE6FFFC0EDB50E5528B
:1019E000E724DF5C38E2DF50E76EFD0EDBCFE9FF76
:1019F000FE0EDBCFEAFFE750E926000EEA22EF50A9
:101A0000200809E1DF50EA6AA90FE96E000EEA2218
:101A100025C1EFFF1ED0DF50E76EFD0EDBCFE9FFE3
:101A2000FE0EDBCFEAFFE750E926000EEA22EF5078
:101A3000D00FEA6A1B0FE96E010EEA22EF50E66E44
:101A4000DF50EA6AA90FE96E000EEA22E552E7507C
:101A5000EF6EDF2ABFD70001BA6B010E00D0E5524E
:101A6000E552E7CFD9FF1200D9CFE6FFE1CFD9FF8A
:101A7000E652FD0EDBCFBDF0FE0EDBCFBEF0010E59
:101A80000F0B000105E0D890BE33BD33E806FBE143
:101A90000001BB6BBC6BFC0EDB50C16FC26BDF6A1D
:101AA000B951DF5C1CE2DF50146E156AC151141885
:101AB00002E1C251151811E0DF50EA6AA90FE96E80
:101AC000000EEA22EF50E66EDF50EA6AB10FE96ECF
:101AD000000EEA22E552E750EF6EDF2AE1D7B10EA1
:101AE000C125E96E000EC221EA6EEF6A010EA86FF1
:0A1AF000E552E552E7CFD9FF1200DE
:061AFA00D9CFE6FFE1CFA9
:101B0000D9FFE6528DD8DF6A080EDF5C09E2DF50AC
:101B1000EA6AC30FE96E000EEA22EF6ADF2AF4D701
:101B2000E552E552E7CFD9FF1200D9CFE6FFE1CF6A
:101B3000D9FF9BD8FC0EDBCFE6FFFD0EDBCFE6FF27
:101B4000FE0EDBCFE6FFB9D8E552E552E552E5528D
:101B5000E7CFD9FF1200D9CFE6FFE1CFD9FFE65298
:101B6000FC0EDB50DF6EFB0EDB50D880DF541AE337
:101B70007CD8DFCFE6FF176ADF34FE0B1736166E10
:101B8000FD0EDB501624146EFE0EDB501720156E72
:101B900014C0E6FF15C0E6FF90D8E552E552E552C5
:101BA000DF2AE1D7E552E552E7CFD9FF1200D9CFBE
:101BB000E6FFE1CFD9FFE652DF6A57D8DF6A080EA9
:101BC000DF5C15E2DFCFE6FF156ADF34FE0B15366A
:101BD000146ECB0E1426000E152214C0E6FF15C09D
:101BE000E6FF6BD8E552E552E552DF2AE8D7E55229
:101BF000E552E7CFD9FF1200D9CFE6FFE1CFD9FFF9
:101C0000FE0EEA6ADB34FE0BEA36E96ECB0EE926FD
:101C1000000EEA22EF5000D0E552E7CFD9FF1200C4
:101C2000D9CFE6FFE1CFD9FFE652DF6A080EDF5CCD
:101C300017E2EA6ADF34FE0BEA36E96ECB0EE926DC
:101C4000000EEA22EF6AEA6ADF34FE0BEA36E96E3A
:101C5000CB0EE926000EEA22EE52EF6ADF2AE6D723
:101C6000E552E552E7CFD9FF12008150010B000188
:101C7000C36F8150020B01E0010EC46F8150040B51
:101C800001E0010EC56F8150080B01E0010EC66F27
:101C90008150100B01E0010EC76F8150200B01E055
:101CA000010EC86F8150400B01E0010EC96F8150D9
:101CB000800B01E0010ECA6F1200D9CFE6FFE1CF21
:101CC000D9FFFD0EDBCFE9FFFE0EDBCFEAFFEF50C1
:101CD000010A3DE0010A01E074D0FC0EDB50EA6A23
:101CE000C30FE96E000EEA22EF50010B27E1FD0E53
:101CF000DBCFE9FFFE0EDBCFEAFFEE52EF2AFD0E4F
:101D0000DBCFE9FFFE0EDBCFEAFFEECF14F0EFCF23
:101D100015F0020E0001155C10E3FD0EDBCFE9FFAC
:101D2000FE0EDBCFEAFF010EEF6EFD0EDBCFE9FF0B
:101D3000FE0EDBCFEAFFEE52EF6A08D0FD0EDBCFDE
:101D4000E9FFFE0EDBCFEAFFEE52EF6A3AD0FC0E5F
:101D5000DB50EA6AC30FE96E000EEA22EF50010B76
:101D6000010826E1FD0EDBCFE9FFFE0EDBCFEAFF27
:101D7000EE52EF2AFD0EDBCFE9FFFE0EDBCFEAFFCE
:101D8000EECF14F0EFCF15F0020E0001155C0FE35B
:101D9000FD0EDBCFE9FFFE0EDBCFEAFFEF6AFD0EA3
:101DA000DBCFE9FFFE0EDBCFEAFFEE52EF6A08D091
:101DB000FD0EDBCFE9FFFE0EDBCFEAFFEE52EF6A4E
:0A1DC00000D0E552E7CFD9FF120072
:061DCA00D9CFE6FFE1CFD6
:101DD000D9FFE652200EE66EE66A90EC13F0E5526B
:101DE000E5520001DB6FBDEC14F00001DB51020A8B
:101DF0000EE0020A01E024D0849224D9DC0EE66EC3
:101E0000000EE66E37EC0BF0E552E55219D0DF6AB2
:101E1000060EDF5C0CE2DF50EA6ADC0FE96E000EB2
:101E2000EA22300EEF6EBDEC14F0DF2AF1D7DC0EA3
:101E3000E66E000EE66E37EC0BF0E552E55200D090
:101E4000E552E552E7CFD9FF1200D9CFE6FFE1CF47
:101E5000D9FF020EE1260001DB51020A70E0030AFD
:101E600024E0010A01E08CD0020EE66EFCEC0DF0DD
:101E7000E552010819E1E6D8300EE66E010EE66E75
:101E800010EC07F0E552E552010EE66E200EE66E0C
:101E9000E66A13EC13F0E552E552E552BDEC14F09E
:101EA0000001010EDB6F84826BD0030EE66EFCEC4A
:101EB0000DF0E552010831E1010EDB6A060EF36E0A
:101EC000010EDBCFF4FFF350F45C17E2010EDB50A0
:101ED000EA6ADC0FE96E000EEA22EF50E66E010EB0
:101EE000DB28E66EE66A13EC13F0E552E552E552A4
:101EF000BDEC14F0010EDB2AE1D7020EE66E200ED7
:101F0000E66EE66A13EC13F0E552E552E552BDECDD
:101F100014F00001020EDB6F33D0E20EE66E000E0D
:101F2000E66E68EC06F0E552E55234D8DC0EE66E5B
:101F3000000EE66E37EC0BF0E552E55221D0020EB2
:101F4000E66EFCEC0DF0E552010819E17BD8300E8D
:101F5000E66E010EE66E10EC07F0E552E552010E5A
:101F6000E66E200EE66EE66A13EC13F0E552E552DB
:101F7000E552BDEC14F00001010EDB6F01D000D082
:101F8000020EE15C02E2E16AE552E16EE552E7CF62
:101F9000D9FF1200D9CFE6FFE1CFD9FF030EE1262A
:101FA000DF6AE5C0DFFFDF06DF0404E1240E000185
:101FB000E42714D0020EDF5C04E1480E0001E427A0
:101FC0000DD0030EDF5C04E1720E0001E42706D0A1
:101FD000040EDF5C03E1960E0001E427990E000178
:101FE000E45D08E1590EE35D05E1590EE25D02E1B1
:101FF000020EDB6F0F0EE215300FDC6FF00EE215F4
:10200000E8380F0B300FDD6F0F0EE315300FDE6F6A
:10201000F00EE315E8380F0B300FDF6F0F0EE415ED
:10202000300FE06FF00EE415E8380F0B300FE16F62
:10203000030EE15C02E2E16AE552E16EE552E7CFB0
:10204000D9FF1200D9CFE6FFE1CFD9FF020EE1267A
:10205000DF6A060EDF5C0AE2DF50EA6ADC0FE96E37
:10206000000EEA22300EEF6EDF2AF3D7020EE15C9B
:1020700002E2E16AE552E16EE552E7CFD9FF1200D4
:10208000C76AC78E590EC86E280EC66EC56A9E9660
:10209000A196948694881200949694988288828659
:1020A000050EE66EB2EC14F0E5528298050EE66E6F
:1020B000B2EC14F0E5528296050EE66EB2EC14F026
:1020C000E5521200949694988298050EE66EB2EC52
:1020D00014F0E5528286050EE66EB2EC14F0E5527D
:1020E00082881200D9CFE6FFE1CFD9FFE65294965D
:1020F0009488DF6ADF500A080EE3050EE66EB2EC44
:1021000014F0E5528286050EE66EB2EC14F0E5524C
:102110008296DF2AEFD7E552E552E7CFD9FF1200CA
:10212000D9CFE6FFE1CFD9FFE65294969498DF6AC3
:10213000080EDF5C25E2FE0EDB50800B02E0010E94
:1021400001D0000EE8B08288E8A08298030EE66E07
:10215000B2EC14F0E5528286060EE66EB2EC14F094
:10216000E5528296020EE66EB2EC14F0E552FE0ED7
:10217000DBCFF3FFF39EF346F3CFDBFFDF2AD8D7A5
:102180009488020EE66EB2EC14F0E5528286060EDA
:10219000E66EB2EC14F0E5528296060EE66EB2ECF4
:1021A00014F0E552E552E552E7CFD9FF1200D9CF3E
:1021B000E6FFE1CFD9FF020EE126DF6A94969498FC
:1021C0009488010EDB6A080EF36E010EDBCFF4FF7C
:1021D000F350F45C17E28286060EE66EB2EC14F061
:1021E000E552DF9EDF468250100B01E0010EDF104A
:1021F000DF6E8296060EE66EB2EC14F0E552010E2A
:10220000DB2AE1D79498FE0EDB0402E1829801D02C
:102210008288020EE66EB2EC14F0E5528286060E5B
:10222000E66EB2EC14F0E5528296060EE66EB2EC63
:1022300014F0E552DF50146E020EE15C03E200D0B0
:10224000E16AE552E16E1450E552E7CFD9FF120082
:10225000D9CFE6FFE1CFD9FFE6521EDFFE0EDBCF7E
:10226000E6FF5EDFE552FD0EDBCFE6FF59DFE5520C
:1022700013DFFE0EDB28E66E53DFE552E66A97DFDA
:10228000E552DF6E1FDFDF5000D0E552E552E7CFA9
:10229000D9FF1200D9CFE6FFE1CFD9FFFDDEFE0E58
:1022A000DBCFE6FF3DDFE552FD0EDBCFE6FF38DF9B
:1022B000E552FC0EDBCFE6FF33DFE55203DFE552EC
:0622C000E7CFD9FF120078
:0A22C600DACFE4FFE2CFDAFFE9CF40
:1022D000E4FFEACFE4FFF6CFE4FFF7CFE4FFF5CF6A
:1022E000E4FFF3CFE4FFF4CFE4FFFACFE4FF00EE26
:1022F00000F0140EE80403E3EECFE4FFFBD700EE9A
:1023000014F0080EE80403E3EECFE4FFFBD7E65237
:10231000F2940101082B000E09230A2B0B230C2B2E
:102320000D230251031107E005D003C1FAFF01019B
:102330000251F96EFADF00C1E6FF01C1E6FF2BECA6
:1023400014F0E552E552E55200EE1BF0080EE804E9
:1023500003E3E5CFEDFFFBD700EE13F0140EE80426
:1023600003E3E5CFEDFFFBD7E5CFFAFFE5CFF4FFC1
:10237000E5CFF3FFE5CFF5FFE5CFF7FFE5CFF6FFBC
:10238000E5CFEAFFE5CFE9FFE5CFDAFF1100DACFCD
:10239000E4FFE2CFDAFFE9CFE4FFEACFE4FFF6CFD4
:1023A000E4FFF7CFE4FFF5CFE4FFF3CFE4FFF4CF92
:1023B000E4FFFACFE4FF00EE00F0140EE80403E3BC
:1023C000EECFE4FFFBD700EE14F0080EE80403E3C1
:1023D000EECFE4FFFBD7E6529E9004C1E6FF05C1B5
:1023E000E6FF0FEC14F0E552E5520101065107112A
:1023F00007E005D007C1FAFF01010651F96EFADFC7
:10240000E55200EE1BF0080EE80403E3E5CFEDFF14
:10241000FBD700EE13F0140EE80403E3E5CFEDFF65
:10242000FBD7E5CFFAFFE5CFF4FFE5CFF3FFE5CF2C
:10243000F5FFE5CFF7FFE5CFF6FFE5CFEAFFE5CF04
:10244000E9FFE5CFDAFF1100D9CFE6FFE1CFD9FFF1
:102450009F0EE66E47EC14F0E552FD0EDBCF00F167
:10246000FE0EDBCF01F1FB0EDBCF02F1FC0EDBCF6A
:1024700003F1FD0EDBCFE6FFFE0EDBCFE6FF2BEC1C
:1024800014F0E552E552E552E7CFD9FF1200D9CF5B
:10249000E6FFE1CFD9FFC50EE66EB2EC13F0E552D0
:1024A000FD0EDBCFE6FFFE0EDBCFE6FF0FEC14F0F8
:1024B000E552E5529F80FD0EDBCF04F1FE0EDBCF2F
:1024C00005F1FB0EDBCF06F1FC0EDBCF07F1E55289
:0624D000E7CFD9FF120066
:0A24D600D9CFE6FFE1CFD9FF040ED5
:1024E000E126DF6A030EDB6AF1EC13F086EC0AF0FA
:1024F000060EE66EC3EC0AF0E552000EE66EE66AE2
:10250000BF0EE66EE00EE66E24EC12F0E552E552E8
:10251000E552E552E80EE66E150EE66E5F0EE66ECB
:10252000F00EE66E47EC12F0E552E552E552E55248
:10253000E5EC0EF00DEC00F00101F40E085D010E6B
:10254000095905E3A8EC14F00101086B096B0101BE
:102550000A0E0A5D000E0B5906E3D7EC0DF00101DF
:102560000A6B0B6BDF2A0A0EDF5C03E325EC0FF02E
:10257000DF6AE2D7040EE15C02E2E16AE552E16E55
:08258000E552E7CFD9FF12007C
:08258800200EF66E000EF76E46
:10259000000EF86E01010900F5502B6F0900F5508F
:1025A0002C6F03E12B6701D03DD00900F550266F59
:1025B0000900F550276F0900F550286F0900090040
:1025C000F550E96E0900F550EA6E090009000900AE
:1025D000F550296F0900F5502A6F09000900F6CF60
:1025E0002DF1F7CF2EF1F8CF2FF126C1F6FF27C13D
:1025F000F7FF28C1F8FF0101295302E12A5307E040
:102600000900F550EE6E2907F8E22A07F9D72DC127
:10261000F6FF2EC1F7FF2FC1F8FF01012B07000EB7
:062620002C5BBFD7120085
:0A262600D9CFE6FFDACFE6FFE1CFDF
:10263000D9FFE2CFDAFFE652DF6AFF0EE76EFC0E4B
:10264000DBCF14F0E75014161450A96EFB0EDB50CC
:10265000A86EA69EA69CA684F250800B01E0010EF7
:10266000DF6EF29E550EA76EAA0EA76EA682A6B2C8
:10267000FED7DF50E8B0F28EE8A0F29EA694E552B5
:0C268000E552E5CFDAFFE7CFD9FF1200EA
:04268C00446563003E
:102690004E6F76004F63740053657000417567009C
:1026A0004A756C004A756E004D6179004170720088
:1026B0004D617200466562004A616E0053617400AC
:1026C000467269005468750057656400547565006A
:0826D0004D6F6E0053756E00A2
:0826D800056A046A036A026A44
:1026E000200EE76ED89006360736083609360236D1
:1026F0000336043605360B50025C0C5003580D505F
:1027000004580E50055809E30B50025E0C50035A52
:102710000D50045A0E50055A062AE72EE4D712002F
:10272000D9CFE6FFDACFE6FFE1CFD9FFE2CFDAFF7C
:10273000FF0EE76EFC0EDBCF14F0FD0EDBCF15F0C5
:10274000E7501416156A1450A96EA69CA69EA68082
:1027500000000000A85000D0E552E5CFDAFFE7CF37
:04276000D9FF12008B
:0C276400D9CFE6FFDACFE6FFE1CFD9FFC6
:10277000E2CFDAFFFD0EDB507E0BCD6EFD0EDBAC43
:1027800002D0CD8E01D0CD9ECF6ACE6A9E90DBAEB8
:1027900002D09D8001D09D90CD80E552E5CFDAFF3B
:0627A000E7CFD9FF120093
:0A27A60008C012F008500D02F4CF35
:1027B00007F0F3CF06F009500E02F4CF09F0F3CF83
:1027C00008F00D02F3500726F4500822E86A0922A7
:1027D00012500E02F3500726F4500822E86A09222C
:0227E000000CEB
:0E27E200C26A0F0EC16E700ED3129B8C9490C3
:1027F000949C948E956A92909292929492969298CA
:10280000929A969293809382938493869388938CE2
:0E281000938C938E949694989690F19E12005D
:02281E00D9CF10
:10282000E6FFDACFE6FFE1CFD9FFE2CFDAFFE652EB
:10283000E652FC0EDBCFDEFFDBCFDDFF010EDB500F
:10284000CF6EDF50CE6EE552E552E552E5CFDAFFAE
:06285000E7CFD9FF1200E2
:0A285600D9CFE6FFDACFE6FFE1CFAD
:10286000D9FFE2CFDAFFE652E652FC0EDBCFDEFF05
:10287000DBCFDDFF010EDB50D76EDF50D66EE552A9
:0E288000E552E552E5CFDAFFE7CFD9FF1200AF
:02288E00D9CFA0
:10289000E6FFDACFE6FFE1CFD9FFE2CFDAFFFD0EA8
:1028A000DB507F0BD56ED76AD66AF294FD0EDBAE95
:1028B00002D0F28A01D0F29AD58EE552E5CFDAFF46
:0628C000E7CFD9FF120072
:0A28C600056A046A100EE76ED89050
:1028D00008360936043605360D50045C0E5005588E
:1028E00005E30D50045E0E50055A082AE72EF0D776
:0228F0001200D4
:0E28F200000EF36E00EE00F0060E01D812008C
:10290000EA6002D0EE6AFCD7F350E9601200EE6A8A
:02291000FCD7F2
:0E29120015EE00F025EE00F0F86A019CC4EC12
:0E29200012F003EC00F06BEC12F0FBD712008B
:02292E00056A38
:10293000080EE76ED890093605360E50055C02E3A6
:0A294000056E092AE72EF7D71200F2
:06294A000101386B1200D0
:102950000101380503E1386B849003D0010E386F14
:04296000848012005D
:0C296400FF0EE350E84E1200000000D00F
:0A29700000D000D0E82EFAD71200C4
:06297A00A6B2FED7120018
:102980000000000000000000000000000000000047
:05299000000000000042
:0B299500000000000000000000000037
:0D29A000000000000000000000000000002A
:0329AD0000000027
:1029B0000000000000000000000000000000000017
:0829C00000000000000000000F
:0829C800000000000000000007
:0629D00000000000000001
:0A29D60000D426D026CC26C826C463
:1029E00026C026BC26B826B426B026AC26A826A427
:0E29F00026A0269C269826942690268C26004B
:0229FE0049444A
:0B2A0000454F4E494353003336323738
:012A0B0000CA
:042A0C003F065B4FD7
:072A1000666D7D077F6F007A
:072A170000000001010114A1
:020000040030CA
:0100010008F6
:010002001BE2
:0100030012EA
:010005008179
:010006008178
:010008000FE8
:01000900C036
:01000A000FE6
:01000B00E014
:01000C000FE4
:01000D0040B2
:00000001FF
